{
  "contractName": "CryptoCardsCardToken",
  "abi": [
    {
      "constant": true,
      "inputs": [
        {
          "name": "interfaceId",
          "type": "bytes4"
        }
      ],
      "name": "supportsInterface",
      "outputs": [
        {
          "name": "",
          "type": "bool"
        }
      ],
      "payable": false,
      "stateMutability": "view",
      "type": "function"
    },
    {
      "constant": true,
      "inputs": [],
      "name": "name",
      "outputs": [
        {
          "name": "",
          "type": "string"
        }
      ],
      "payable": false,
      "stateMutability": "view",
      "type": "function"
    },
    {
      "constant": true,
      "inputs": [
        {
          "name": "tokenId",
          "type": "uint256"
        }
      ],
      "name": "getApproved",
      "outputs": [
        {
          "name": "",
          "type": "address"
        }
      ],
      "payable": false,
      "stateMutability": "view",
      "type": "function"
    },
    {
      "constant": false,
      "inputs": [
        {
          "name": "to",
          "type": "address"
        },
        {
          "name": "tokenId",
          "type": "uint256"
        }
      ],
      "name": "approve",
      "outputs": [],
      "payable": false,
      "stateMutability": "nonpayable",
      "type": "function"
    },
    {
      "constant": true,
      "inputs": [],
      "name": "getVersion",
      "outputs": [
        {
          "name": "",
          "type": "string"
        }
      ],
      "payable": false,
      "stateMutability": "pure",
      "type": "function"
    },
    {
      "constant": true,
      "inputs": [],
      "name": "totalSupply",
      "outputs": [
        {
          "name": "",
          "type": "uint256"
        }
      ],
      "payable": false,
      "stateMutability": "view",
      "type": "function"
    },
    {
      "constant": false,
      "inputs": [
        {
          "name": "from",
          "type": "address"
        },
        {
          "name": "to",
          "type": "address"
        },
        {
          "name": "tokenId",
          "type": "uint256"
        }
      ],
      "name": "transferFrom",
      "outputs": [],
      "payable": false,
      "stateMutability": "nonpayable",
      "type": "function"
    },
    {
      "constant": true,
      "inputs": [
        {
          "name": "owner",
          "type": "address"
        },
        {
          "name": "index",
          "type": "uint256"
        }
      ],
      "name": "tokenOfOwnerByIndex",
      "outputs": [
        {
          "name": "",
          "type": "uint256"
        }
      ],
      "payable": false,
      "stateMutability": "view",
      "type": "function"
    },
    {
      "constant": false,
      "inputs": [
        {
          "name": "from",
          "type": "address"
        },
        {
          "name": "to",
          "type": "address"
        },
        {
          "name": "tokenId",
          "type": "uint256"
        }
      ],
      "name": "fastTransferFrom",
      "outputs": [],
      "payable": false,
      "stateMutability": "nonpayable",
      "type": "function"
    },
    {
      "constant": false,
      "inputs": [
        {
          "name": "from",
          "type": "address"
        },
        {
          "name": "to",
          "type": "address"
        },
        {
          "name": "tokenId",
          "type": "uint256"
        }
      ],
      "name": "safeTransferFrom",
      "outputs": [],
      "payable": false,
      "stateMutability": "nonpayable",
      "type": "function"
    },
    {
      "constant": true,
      "inputs": [
        {
          "name": "tokenId",
          "type": "uint256"
        }
      ],
      "name": "exists",
      "outputs": [
        {
          "name": "",
          "type": "bool"
        }
      ],
      "payable": false,
      "stateMutability": "view",
      "type": "function"
    },
    {
      "constant": true,
      "inputs": [
        {
          "name": "index",
          "type": "uint256"
        }
      ],
      "name": "tokenByIndex",
      "outputs": [
        {
          "name": "",
          "type": "uint256"
        }
      ],
      "payable": false,
      "stateMutability": "view",
      "type": "function"
    },
    {
      "constant": true,
      "inputs": [
        {
          "name": "tokenId",
          "type": "uint256"
        }
      ],
      "name": "ownerOf",
      "outputs": [
        {
          "name": "",
          "type": "address"
        }
      ],
      "payable": false,
      "stateMutability": "view",
      "type": "function"
    },
    {
      "constant": true,
      "inputs": [
        {
          "name": "owner",
          "type": "address"
        }
      ],
      "name": "balanceOf",
      "outputs": [
        {
          "name": "",
          "type": "uint256"
        }
      ],
      "payable": false,
      "stateMutability": "view",
      "type": "function"
    },
    {
      "constant": false,
      "inputs": [],
      "name": "renounceOwnership",
      "outputs": [],
      "payable": false,
      "stateMutability": "nonpayable",
      "type": "function"
    },
    {
      "constant": true,
      "inputs": [],
      "name": "owner",
      "outputs": [
        {
          "name": "",
          "type": "address"
        }
      ],
      "payable": false,
      "stateMutability": "view",
      "type": "function"
    },
    {
      "constant": true,
      "inputs": [],
      "name": "isOwner",
      "outputs": [
        {
          "name": "",
          "type": "bool"
        }
      ],
      "payable": false,
      "stateMutability": "view",
      "type": "function"
    },
    {
      "constant": true,
      "inputs": [],
      "name": "symbol",
      "outputs": [
        {
          "name": "",
          "type": "string"
        }
      ],
      "payable": false,
      "stateMutability": "view",
      "type": "function"
    },
    {
      "constant": false,
      "inputs": [
        {
          "name": "account",
          "type": "address"
        }
      ],
      "name": "addMinter",
      "outputs": [],
      "payable": false,
      "stateMutability": "nonpayable",
      "type": "function"
    },
    {
      "constant": false,
      "inputs": [],
      "name": "renounceMinter",
      "outputs": [],
      "payable": false,
      "stateMutability": "nonpayable",
      "type": "function"
    },
    {
      "constant": false,
      "inputs": [
        {
          "name": "to",
          "type": "address"
        },
        {
          "name": "approved",
          "type": "bool"
        }
      ],
      "name": "setApprovalForAll",
      "outputs": [],
      "payable": false,
      "stateMutability": "nonpayable",
      "type": "function"
    },
    {
      "constant": true,
      "inputs": [
        {
          "name": "account",
          "type": "address"
        }
      ],
      "name": "isMinter",
      "outputs": [
        {
          "name": "",
          "type": "bool"
        }
      ],
      "payable": false,
      "stateMutability": "view",
      "type": "function"
    },
    {
      "constant": false,
      "inputs": [
        {
          "name": "from",
          "type": "address"
        },
        {
          "name": "to",
          "type": "address"
        },
        {
          "name": "tokenId",
          "type": "uint256"
        },
        {
          "name": "_data",
          "type": "bytes"
        }
      ],
      "name": "safeTransferFrom",
      "outputs": [],
      "payable": false,
      "stateMutability": "nonpayable",
      "type": "function"
    },
    {
      "constant": true,
      "inputs": [
        {
          "name": "tokenId",
          "type": "uint256"
        }
      ],
      "name": "tokenURI",
      "outputs": [
        {
          "name": "",
          "type": "string"
        }
      ],
      "payable": false,
      "stateMutability": "view",
      "type": "function"
    },
    {
      "constant": true,
      "inputs": [
        {
          "name": "owner",
          "type": "address"
        },
        {
          "name": "operator",
          "type": "address"
        }
      ],
      "name": "isApprovedForAll",
      "outputs": [
        {
          "name": "",
          "type": "bool"
        }
      ],
      "payable": false,
      "stateMutability": "view",
      "type": "function"
    },
    {
      "constant": false,
      "inputs": [
        {
          "name": "newOwner",
          "type": "address"
        }
      ],
      "name": "transferOwnership",
      "outputs": [],
      "payable": false,
      "stateMutability": "nonpayable",
      "type": "function"
    },
    {
      "constant": false,
      "inputs": [
        {
          "name": "from",
          "type": "address"
        },
        {
          "name": "to",
          "type": "address"
        },
        {
          "name": "tokenIds",
          "type": "uint256[]"
        }
      ],
      "name": "batchTransferFrom",
      "outputs": [],
      "payable": false,
      "stateMutability": "nonpayable",
      "type": "function"
    },
    {
      "inputs": [],
      "payable": false,
      "stateMutability": "nonpayable",
      "type": "constructor"
    },
    {
      "anonymous": false,
      "inputs": [
        {
          "indexed": true,
          "name": "owner",
          "type": "address"
        },
        {
          "indexed": false,
          "name": "tokenA",
          "type": "uint256"
        },
        {
          "indexed": false,
          "name": "tokenB",
          "type": "uint256"
        },
        {
          "indexed": false,
          "name": "newTokenId",
          "type": "uint256"
        },
        {
          "indexed": false,
          "name": "uuid",
          "type": "bytes16"
        }
      ],
      "name": "CardsCombined",
      "type": "event"
    },
    {
      "anonymous": false,
      "inputs": [
        {
          "indexed": true,
          "name": "owner",
          "type": "address"
        },
        {
          "indexed": false,
          "name": "tokenId",
          "type": "uint256"
        },
        {
          "indexed": false,
          "name": "wrappedEther",
          "type": "uint256"
        },
        {
          "indexed": false,
          "name": "uuid",
          "type": "bytes16"
        }
      ],
      "name": "CardPrinted",
      "type": "event"
    },
    {
      "anonymous": false,
      "inputs": [
        {
          "indexed": true,
          "name": "owner",
          "type": "address"
        },
        {
          "indexed": false,
          "name": "tokenId",
          "type": "uint256"
        },
        {
          "indexed": false,
          "name": "wrappedEther",
          "type": "uint256"
        },
        {
          "indexed": false,
          "name": "wrappedGum",
          "type": "uint256"
        },
        {
          "indexed": false,
          "name": "uuid",
          "type": "bytes16"
        }
      ],
      "name": "CardMelted",
      "type": "event"
    },
    {
      "anonymous": false,
      "inputs": [
        {
          "indexed": false,
          "name": "amount",
          "type": "uint256"
        }
      ],
      "name": "WrappedEtherDeposit",
      "type": "event"
    },
    {
      "anonymous": false,
      "inputs": [
        {
          "indexed": true,
          "name": "previousOwner",
          "type": "address"
        },
        {
          "indexed": true,
          "name": "newOwner",
          "type": "address"
        }
      ],
      "name": "OwnershipTransferred",
      "type": "event"
    },
    {
      "anonymous": false,
      "inputs": [
        {
          "indexed": true,
          "name": "account",
          "type": "address"
        }
      ],
      "name": "MinterAdded",
      "type": "event"
    },
    {
      "anonymous": false,
      "inputs": [
        {
          "indexed": true,
          "name": "account",
          "type": "address"
        }
      ],
      "name": "MinterRemoved",
      "type": "event"
    },
    {
      "anonymous": false,
      "inputs": [
        {
          "indexed": false,
          "name": "from",
          "type": "address"
        },
        {
          "indexed": false,
          "name": "to",
          "type": "address"
        },
        {
          "indexed": false,
          "name": "tokenIds",
          "type": "uint256[]"
        }
      ],
      "name": "BatchTransfer",
      "type": "event"
    },
    {
      "anonymous": false,
      "inputs": [
        {
          "indexed": true,
          "name": "from",
          "type": "address"
        },
        {
          "indexed": true,
          "name": "to",
          "type": "address"
        },
        {
          "indexed": true,
          "name": "tokenId",
          "type": "uint256"
        }
      ],
      "name": "Transfer",
      "type": "event"
    },
    {
      "anonymous": false,
      "inputs": [
        {
          "indexed": true,
          "name": "owner",
          "type": "address"
        },
        {
          "indexed": true,
          "name": "approved",
          "type": "address"
        },
        {
          "indexed": true,
          "name": "tokenId",
          "type": "uint256"
        }
      ],
      "name": "Approval",
      "type": "event"
    },
    {
      "anonymous": false,
      "inputs": [
        {
          "indexed": true,
          "name": "owner",
          "type": "address"
        },
        {
          "indexed": true,
          "name": "operator",
          "type": "address"
        },
        {
          "indexed": false,
          "name": "approved",
          "type": "bool"
        }
      ],
      "name": "ApprovalForAll",
      "type": "event"
    },
    {
      "constant": true,
      "inputs": [
        {
          "name": "tokenId",
          "type": "uint256"
        }
      ],
      "name": "getYear",
      "outputs": [
        {
          "name": "",
          "type": "uint64"
        }
      ],
      "payable": false,
      "stateMutability": "pure",
      "type": "function"
    },
    {
      "constant": true,
      "inputs": [
        {
          "name": "tokenId",
          "type": "uint256"
        }
      ],
      "name": "getGeneration",
      "outputs": [
        {
          "name": "",
          "type": "uint64"
        }
      ],
      "payable": false,
      "stateMutability": "pure",
      "type": "function"
    },
    {
      "constant": true,
      "inputs": [
        {
          "name": "tokenId",
          "type": "uint256"
        }
      ],
      "name": "getRank",
      "outputs": [
        {
          "name": "",
          "type": "uint64"
        }
      ],
      "payable": false,
      "stateMutability": "pure",
      "type": "function"
    },
    {
      "constant": true,
      "inputs": [
        {
          "name": "tokenId",
          "type": "uint256"
        }
      ],
      "name": "getIssue",
      "outputs": [
        {
          "name": "",
          "type": "uint64"
        }
      ],
      "payable": false,
      "stateMutability": "pure",
      "type": "function"
    },
    {
      "constant": true,
      "inputs": [
        {
          "name": "tokenId",
          "type": "uint256"
        }
      ],
      "name": "getTypeIndicators",
      "outputs": [
        {
          "name": "",
          "type": "uint64"
        },
        {
          "name": "",
          "type": "uint64"
        },
        {
          "name": "",
          "type": "uint64"
        }
      ],
      "payable": false,
      "stateMutability": "pure",
      "type": "function"
    },
    {
      "constant": true,
      "inputs": [
        {
          "name": "tokenId",
          "type": "uint256"
        }
      ],
      "name": "getWrappedGum",
      "outputs": [
        {
          "name": "",
          "type": "uint64"
        }
      ],
      "payable": false,
      "stateMutability": "pure",
      "type": "function"
    },
    {
      "constant": true,
      "inputs": [
        {
          "name": "tokenId",
          "type": "uint256"
        }
      ],
      "name": "getWrappedEther",
      "outputs": [
        {
          "name": "",
          "type": "uint256"
        }
      ],
      "payable": false,
      "stateMutability": "pure",
      "type": "function"
    },
    {
      "constant": true,
      "inputs": [
        {
          "name": "tokenId",
          "type": "uint256"
        }
      ],
      "name": "isTokenPrinted",
      "outputs": [
        {
          "name": "",
          "type": "bool"
        }
      ],
      "payable": false,
      "stateMutability": "view",
      "type": "function"
    },
    {
      "constant": true,
      "inputs": [
        {
          "name": "tokenA",
          "type": "uint256"
        },
        {
          "name": "tokenB",
          "type": "uint256"
        }
      ],
      "name": "canCombine",
      "outputs": [
        {
          "name": "",
          "type": "bool"
        }
      ],
      "payable": false,
      "stateMutability": "view",
      "type": "function"
    },
    {
      "constant": false,
      "inputs": [
        {
          "name": "to",
          "type": "address"
        },
        {
          "name": "tokenIds",
          "type": "uint256[]"
        }
      ],
      "name": "mintCardsFromPack",
      "outputs": [],
      "payable": false,
      "stateMutability": "nonpayable",
      "type": "function"
    },
    {
      "constant": false,
      "inputs": [
        {
          "name": "to",
          "type": "address"
        },
        {
          "name": "tokenIds",
          "type": "uint256[]"
        }
      ],
      "name": "migrateCards",
      "outputs": [],
      "payable": false,
      "stateMutability": "nonpayable",
      "type": "function"
    },
    {
      "constant": false,
      "inputs": [
        {
          "name": "owner",
          "type": "address"
        },
        {
          "name": "tokenId",
          "type": "uint256"
        },
        {
          "name": "uuid",
          "type": "bytes16"
        }
      ],
      "name": "printFor",
      "outputs": [],
      "payable": false,
      "stateMutability": "nonpayable",
      "type": "function"
    },
    {
      "constant": false,
      "inputs": [
        {
          "name": "owner",
          "type": "address"
        },
        {
          "name": "tokenA",
          "type": "uint256"
        },
        {
          "name": "tokenB",
          "type": "uint256"
        },
        {
          "name": "newIssue",
          "type": "uint256"
        },
        {
          "name": "uuid",
          "type": "bytes16"
        }
      ],
      "name": "combineFor",
      "outputs": [
        {
          "name": "",
          "type": "uint256"
        }
      ],
      "payable": false,
      "stateMutability": "nonpayable",
      "type": "function"
    },
    {
      "constant": false,
      "inputs": [
        {
          "name": "owner",
          "type": "address"
        },
        {
          "name": "tokenId",
          "type": "uint256"
        },
        {
          "name": "uuid",
          "type": "bytes16"
        }
      ],
      "name": "meltFor",
      "outputs": [
        {
          "name": "",
          "type": "uint256"
        }
      ],
      "payable": false,
      "stateMutability": "nonpayable",
      "type": "function"
    },
    {
      "constant": false,
      "inputs": [
        {
          "name": "from",
          "type": "address"
        },
        {
          "name": "to",
          "type": "address"
        },
        {
          "name": "tokenId",
          "type": "uint256"
        }
      ],
      "name": "tokenTransfer",
      "outputs": [],
      "payable": false,
      "stateMutability": "nonpayable",
      "type": "function"
    },
    {
      "constant": false,
      "inputs": [
        {
          "name": "uri",
          "type": "string"
        }
      ],
      "name": "setBaseTokenURI",
      "outputs": [],
      "payable": false,
      "stateMutability": "nonpayable",
      "type": "function"
    },
    {
      "constant": false,
      "inputs": [
        {
          "name": "proxy",
          "type": "address"
        }
      ],
      "name": "setProxyRegistryAddress",
      "outputs": [],
      "payable": false,
      "stateMutability": "nonpayable",
      "type": "function"
    },
    {
      "constant": false,
      "inputs": [
        {
          "name": "amount",
          "type": "uint256"
        }
      ],
      "name": "depositWrappedEther",
      "outputs": [],
      "payable": true,
      "stateMutability": "payable",
      "type": "function"
    },
    {
      "constant": true,
      "inputs": [],
      "name": "getWrappedEtherDemand",
      "outputs": [
        {
          "name": "",
          "type": "uint256"
        }
      ],
      "payable": false,
      "stateMutability": "view",
      "type": "function"
    }
  ],
  "bytecode": "0x60806040523480156200001157600080fd5b506040805190810160405280601481526020017f43727970746f2d4361726473202d2043617264730000000000000000000000008152506040805190810160405280600581526020017f4341524453000000000000000000000000000000000000000000000000000000815250606060405190810160405280602281526020017f68747470733a2f2f63727970746f2d63617264732e696f2f636172642d696e6681526020017f6f2f000000000000000000000000000000000000000000000000000000000000815250620001186301ffc9a77c010000000000000000000000000000000000000000000000000000000002620002fb640100000000026401000000009004565b620001556380ac58cd7c010000000000000000000000000000000000000000000000000000000002620002fb640100000000026401000000009004565b6200019263780e9d637c010000000000000000000000000000000000000000000000000000000002620002fb640100000000026401000000009004565b620001cf635b5e139f7c010000000000000000000000000000000000000000000000000000000002620002fb640100000000026401000000009004565b8260099080519060200190620001e79291906200069f565b5081600a9080519060200190620002009291906200069f565b5080600b9080519060200190620002199291906200069f565b50505050620002373362000422640100000000026401000000009004565b33600e60006101000a81548173ffffffffffffffffffffffffffffffffffffffff021916908373ffffffffffffffffffffffffffffffffffffffff160217905550600e60009054906101000a900473ffffffffffffffffffffffffffffffffffffffff1673ffffffffffffffffffffffffffffffffffffffff16600073ffffffffffffffffffffffffffffffffffffffff167f8be0079c531659141344cd1fd0a4f28419497f9722a3daafe3b4186f6b6457e060405160405180910390a36200074e565b63ffffffff7c010000000000000000000000000000000000000000000000000000000002817bffffffffffffffffffffffffffffffffffffffffffffffffffffffff191614151515620003b6576040517f08c379a000000000000000000000000000000000000000000000000000000000815260040180806020018281038252601c8152602001807f4552433136353a20696e76616c696420696e746572666163652069640000000081525060200191505060405180910390fd5b6001600080837bffffffffffffffffffffffffffffffffffffffffffffffffffffffff19167bffffffffffffffffffffffffffffffffffffffffffffffffffffffff1916815260200190815260200160002060006101000a81548160ff02191690831515021790555050565b6200044681600d6200048c640100000000026200486e179091906401000000009004565b8073ffffffffffffffffffffffffffffffffffffffff167f6ae172837ea30b801fbfcdd4108aa1d5bf8ff775444fd70256b44e6bf3dfc3f660405160405180910390a250565b620004a782826200057b640100000000026401000000009004565b1515156200051d576040517f08c379a000000000000000000000000000000000000000000000000000000000815260040180806020018281038252601f8152602001807f526f6c65733a206163636f756e7420616c72656164792068617320726f6c650081525060200191505060405180910390fd5b60018260000160008373ffffffffffffffffffffffffffffffffffffffff1673ffffffffffffffffffffffffffffffffffffffff16815260200190815260200160002060006101000a81548160ff0219169083151502179055505050565b60008073ffffffffffffffffffffffffffffffffffffffff168273ffffffffffffffffffffffffffffffffffffffff161415151562000648576040517f08c379a00000000000000000000000000000000000000000000000000000000081526004018080602001828103825260228152602001807f526f6c65733a206163636f756e7420697320746865207a65726f20616464726581526020017f737300000000000000000000000000000000000000000000000000000000000081525060400191505060405180910390fd5b8260000160008373ffffffffffffffffffffffffffffffffffffffff1673ffffffffffffffffffffffffffffffffffffffff16815260200190815260200160002060009054906101000a900460ff16905092915050565b828054600181600116156101000203166002900490600052602060002090601f016020900481019282601f10620006e257805160ff191683800117855562000713565b8280016001018555821562000713579182015b8281111562000712578251825591602001919060010190620006f5565b5b50905062000722919062000726565b5090565b6200074b91905b80821115620007475760008160009055506001016200072d565b5090565b90565b61541a806200075e6000396000f3fe608060405260043610610230576000357c0100000000000000000000000000000000000000000000000000000000900463ffffffff16806301ffc9a71461023557806306fdde03146102a757806307fdd08414610337578063081812fc14610394578063095ea7b31461040f5780630d8e6e2c1461046a57806313433b08146104fa57806315eaef6b1461057257806318160ddd146105ed57806323b872dd1461061857806326398020146106935780632f745c59146106be57806330176e131461072d5780633b59d2f6146107f55780634191400c1461087057806342842e0e146108bf5780634f558e791461093a5780634f6ccce71461098d578063557cdce8146109dc57806356e3df9714610a3f5780636352211e14610aa257806367d97e9f14610b1d57806370a0823114610c02578063715018a614610c675780638829b04f14610c7e5780638da5cb5b14610d0a5780638f32d59b14610d6157806392d6631314610d9057806395d89b4114610df3578063976b311314610e83578063983b2d5614610ee65780639865027514610f3757806398a968c114610f4e578063a22cb46514610f7c578063a5099bae14610fd9578063aa271e1a1461103c578063aaad472a146110a5578063b0fbf9ca1461113e578063b88d4fde146111de578063c87b56dd146112f0578063d26ea6c0146113a4578063e48f0d09146113f5578063e985e9c5146114da578063f2a40a2314611563578063f2fde38b146115b6578063f3993d1114611607575b600080fd5b34801561024157600080fd5b5061028d6004803603602081101561025857600080fd5b8101908080357bffffffffffffffffffffffffffffffffffffffffffffffffffffffff1916906020019092919050505061170c565b604051808215151515815260200191505060405180910390f35b3480156102b357600080fd5b506102bc611773565b6040518080602001828103825283818151815260200191508051906020019080838360005b838110156102fc5780820151818401526020810190506102e1565b50505050905090810190601f1680156103295780820380516001836020036101000a031916815260200191505b509250505060405180910390f35b34801561034357600080fd5b5061037a6004803603604081101561035a57600080fd5b810190808035906020019092919080359060200190929190505050611815565b604051808215151515815260200191505060405180910390f35b3480156103a057600080fd5b506103cd600480360360208110156103b757600080fd5b810190808035906020019092919050505061189e565b604051808273ffffffffffffffffffffffffffffffffffffffff1673ffffffffffffffffffffffffffffffffffffffff16815260200191505060405180910390f35b34801561041b57600080fd5b506104686004803603604081101561043257600080fd5b81019080803573ffffffffffffffffffffffffffffffffffffffff169060200190929190803590602001909291905050506118ef565b005b34801561047657600080fd5b5061047f611a34565b6040518080602001828103825283818151815260200191508051906020019080838360005b838110156104bf5780820151818401526020810190506104a4565b50505050905090810190601f1680156104ec5780820380516001836020036101000a031916815260200191505b509250505060405180910390f35b34801561050657600080fd5b506105706004803603606081101561051d57600080fd5b81019080803573ffffffffffffffffffffffffffffffffffffffff1690602001909291908035906020019092919080356fffffffffffffffffffffffffffffffff19169060200190929190505050611a71565b005b34801561057e57600080fd5b506105eb6004803603606081101561059557600080fd5b81019080803573ffffffffffffffffffffffffffffffffffffffff169060200190929190803573ffffffffffffffffffffffffffffffffffffffff16906020019092919080359060200190929190505050611bcf565b005b3480156105f957600080fd5b50610602611c82565b6040518082815260200191505060405180910390f35b34801561062457600080fd5b506106916004803603606081101561063b57600080fd5b81019080803573ffffffffffffffffffffffffffffffffffffffff169060200190929190803573ffffffffffffffffffffffffffffffffffffffff16906020019092919080359060200190929190505050611c8f565b005b34801561069f57600080fd5b506106a8611cb4565b6040518082815260200191505060405180910390f35b3480156106ca57600080fd5b50610717600480360360408110156106e157600080fd5b81019080803573ffffffffffffffffffffffffffffffffffffffff16906020019092919080359060200190929190505050611d3a565b6040518082815260200191505060405180910390f35b34801561073957600080fd5b506107f36004803603602081101561075057600080fd5b810190808035906020019064010000000081111561076d57600080fd5b82018360208201111561077f57600080fd5b803590602001918460018302840111640100000000831117156107a157600080fd5b91908080601f016020809104026020016040519081016040528093929190818152602001838380828437600081840152601f19601f820116905080830192505050505050509192919290505050611db1565b005b34801561080157600080fd5b5061086e6004803603606081101561081857600080fd5b81019080803573ffffffffffffffffffffffffffffffffffffffff169060200190929190803573ffffffffffffffffffffffffffffffffffffffff16906020019092919080359060200190929190505050611e47565b005b34801561087c57600080fd5b506108a96004803603602081101561089357600080fd5b8101908080359060200190929190505050611e6c565b6040518082815260200191505060405180910390f35b3480156108cb57600080fd5b50610938600480360360608110156108e257600080fd5b81019080803573ffffffffffffffffffffffffffffffffffffffff169060200190929190803573ffffffffffffffffffffffffffffffffffffffff16906020019092919080359060200190929190505050611e90565b005b34801561094657600080fd5b506109736004803603602081101561095d57600080fd5b8101908080359060200190929190505050611eb1565b604051808215151515815260200191505060405180910390f35b34801561099957600080fd5b506109c6600480360360208110156109b057600080fd5b8101908080359060200190929190505050611ec3565b6040518082815260200191505060405180910390f35b3480156109e857600080fd5b50610a15600480360360208110156109ff57600080fd5b8101908080359060200190929190505050611efb565b604051808267ffffffffffffffff1667ffffffffffffffff16815260200191505060405180910390f35b348015610a4b57600080fd5b50610a7860048036036020811015610a6257600080fd5b8101908080359060200190929190505050611f11565b604051808267ffffffffffffffff1667ffffffffffffffff16815260200191505060405180910390f35b348015610aae57600080fd5b50610adb60048036036020811015610ac557600080fd5b8101908080359060200190929190505050611f27565b604051808273ffffffffffffffffffffffffffffffffffffffff1673ffffffffffffffffffffffffffffffffffffffff16815260200191505060405180910390f35b348015610b2957600080fd5b50610c0060048036036040811015610b4057600080fd5b81019080803573ffffffffffffffffffffffffffffffffffffffff16906020019092919080359060200190640100000000811115610b7d57600080fd5b820183602082011115610b8f57600080fd5b80359060200191846020830284011164010000000083111715610bb157600080fd5b919080806020026020016040519081016040528093929190818152602001838360200280828437600081840152601f19601f820116905080830192505050505050509192919290505050611fa5565b005b348015610c0e57600080fd5b50610c5160048036036020811015610c2557600080fd5b81019080803573ffffffffffffffffffffffffffffffffffffffff169060200190929190505050612056565b6040518082815260200191505060405180910390f35b348015610c7357600080fd5b50610c7c6120da565b005b348015610c8a57600080fd5b50610cf460048036036060811015610ca157600080fd5b81019080803573ffffffffffffffffffffffffffffffffffffffff1690602001909291908035906020019092919080356fffffffffffffffffffffffffffffffff19169060200190929190505050612217565b6040518082815260200191505060405180910390f35b348015610d1657600080fd5b50610d1f61237a565b604051808273ffffffffffffffffffffffffffffffffffffffff1673ffffffffffffffffffffffffffffffffffffffff16815260200191505060405180910390f35b348015610d6d57600080fd5b50610d766123a4565b604051808215151515815260200191505060405180910390f35b348015610d9c57600080fd5b50610dc960048036036020811015610db357600080fd5b81019080803590602001909291905050506123fc565b604051808267ffffffffffffffff1667ffffffffffffffff16815260200191505060405180910390f35b348015610dff57600080fd5b50610e08612412565b6040518080602001828103825283818151815260200191508051906020019080838360005b83811015610e48578082015181840152602081019050610e2d565b50505050905090810190601f168015610e755780820380516001836020036101000a031916815260200191505b509250505060405180910390f35b348015610e8f57600080fd5b50610ebc60048036036020811015610ea657600080fd5b81019080803590602001909291905050506124b4565b604051808267ffffffffffffffff1667ffffffffffffffff16815260200191505060405180910390f35b348015610ef257600080fd5b50610f3560048036036020811015610f0957600080fd5b81019080803573ffffffffffffffffffffffffffffffffffffffff1690602001909291905050506124ca565b005b348015610f4357600080fd5b50610f4c612579565b005b610f7a60048036036020811015610f6457600080fd5b8101908080359060200190929190505050612584565b005b348015610f8857600080fd5b50610fd760048036036040811015610f9f57600080fd5b81019080803573ffffffffffffffffffffffffffffffffffffffff1690602001909291908035151590602001909291905050506126d7565b005b348015610fe557600080fd5b5061101260048036036020811015610ffc57600080fd5b8101908080359060200190929190505050612813565b604051808267ffffffffffffffff1667ffffffffffffffff16815260200191505060405180910390f35b34801561104857600080fd5b5061108b6004803603602081101561105f57600080fd5b81019080803573ffffffffffffffffffffffffffffffffffffffff169060200190929190505050612828565b604051808215151515815260200191505060405180910390f35b3480156110b157600080fd5b506110de600480360360208110156110c857600080fd5b8101908080359060200190929190505050612845565b604051808467ffffffffffffffff1667ffffffffffffffff1681526020018367ffffffffffffffff1667ffffffffffffffff1681526020018267ffffffffffffffff1667ffffffffffffffff168152602001935050505060405180910390f35b34801561114a57600080fd5b506111c8600480360360a081101561116157600080fd5b81019080803573ffffffffffffffffffffffffffffffffffffffff16906020019092919080359060200190929190803590602001909291908035906020019092919080356fffffffffffffffffffffffffffffffff19169060200190929190505050612883565b6040518082815260200191505060405180910390f35b3480156111ea57600080fd5b506112ee6004803603608081101561120157600080fd5b81019080803573ffffffffffffffffffffffffffffffffffffffff169060200190929190803573ffffffffffffffffffffffffffffffffffffffff169060200190929190803590602001909291908035906020019064010000000081111561126857600080fd5b82018360208201111561127a57600080fd5b8035906020019184600183028401116401000000008311171561129c57600080fd5b91908080601f016020809104026020016040519081016040528093929190818152602001838380828437600081840152601f19601f8201169050808301925050505050505091929192905050506129ea565b005b3480156112fc57600080fd5b506113296004803603602081101561131357600080fd5b8101908080359060200190929190505050612a12565b6040518080602001828103825283818151815260200191508051906020019080838360005b8381101561136957808201518184015260208101905061134e565b50505050905090810190601f1680156113965780820380516001836020036101000a031916815260200191505b509250505060405180910390f35b3480156113b057600080fd5b506113f3600480360360208110156113c757600080fd5b81019080803573ffffffffffffffffffffffffffffffffffffffff169060200190929190505050612b91565b005b34801561140157600080fd5b506114d86004803603604081101561141857600080fd5b81019080803573ffffffffffffffffffffffffffffffffffffffff1690602001909291908035906020019064010000000081111561145557600080fd5b82018360208201111561146757600080fd5b8035906020019184602083028401116401000000008311171561148957600080fd5b919080806020026020016040519081016040528093929190818152602001838360200280828437600081840152601f19601f820116905080830192505050505050509192919290505050612c19565b005b3480156114e657600080fd5b50611549600480360360408110156114fd57600080fd5b81019080803573ffffffffffffffffffffffffffffffffffffffff169060200190929190803573ffffffffffffffffffffffffffffffffffffffff169060200190929190505050612d23565b604051808215151515815260200191505060405180910390f35b34801561156f57600080fd5b5061159c6004803603602081101561158657600080fd5b8101908080359060200190929190505050612e70565b604051808215151515815260200191505060405180910390f35b3480156115c257600080fd5b50611605600480360360208110156115d957600080fd5b81019080803573ffffffffffffffffffffffffffffffffffffffff169060200190929190505050612e9a565b005b34801561161357600080fd5b5061170a6004803603606081101561162a57600080fd5b81019080803573ffffffffffffffffffffffffffffffffffffffff169060200190929190803573ffffffffffffffffffffffffffffffffffffffff1690602001909291908035906020019064010000000081111561168757600080fd5b82018360208201111561169957600080fd5b803590602001918460208302840111640100000000831117156116bb57600080fd5b919080806020026020016040519081016040528093929190818152602001838360200280828437600081840152601f19601f820116905080830192505050505050509192919290505050612f22565b005b6000806000837bffffffffffffffffffffffffffffffffffffffffffffffffffffffff19167bffffffffffffffffffffffffffffffffffffffffffffffffffffffff1916815260200190815260200160002060009054906101000a900460ff169050919050565b606060098054600181600116156101000203166002900480601f01602080910402602001604051908101604052809291908181526020018280546001816001161561010002031660029004801561180b5780601f106117e05761010080835404028352916020019161180b565b820191906000526020600020905b8154815290600101906020018083116117ee57829003601f168201915b5050505050905090565b600061182083612e70565b80611830575061182f82612e70565b5b1561183e5760009050611898565b600161184984611f11565b67ffffffffffffffff1610156118625760009050611898565b600061187184600060146130ce565b9050600061188284600060146130ce565b90508063ffffffff168263ffffffff1614925050505b92915050565b60006118a9826130fc565b15156118b457600080fd5b6002600083815260200190815260200160002060009054906101000a900473ffffffffffffffffffffffffffffffffffffffff169050919050565b60006118fa82611f27565b90508073ffffffffffffffffffffffffffffffffffffffff168373ffffffffffffffffffffffffffffffffffffffff161415151561193757600080fd5b8073ffffffffffffffffffffffffffffffffffffffff163373ffffffffffffffffffffffffffffffffffffffff16148061197757506119768133612d23565b5b151561198257600080fd5b826002600084815260200190815260200160002060006101000a81548173ffffffffffffffffffffffffffffffffffffffff021916908373ffffffffffffffffffffffffffffffffffffffff160217905550818373ffffffffffffffffffffffffffffffffffffffff168273ffffffffffffffffffffffffffffffffffffffff167f8c5be1e5ebec7d5bd14f71427d1e84f3dd0314c0f7b2291e5b200ac8c7c3b92560405160405180910390a4505050565b60606040805190810160405280600681526020017f76322e322e310000000000000000000000000000000000000000000000000000815250905090565b611a7a33612828565b1515611b14576040517f08c379a00000000000000000000000000000000000000000000000000000000081526004018080602001828103825260308152602001807f4d696e746572526f6c653a2063616c6c657220646f6573206e6f74206861766581526020017f20746865204d696e74657220726f6c650000000000000000000000000000000081525060400191505060405180910390fd5b611b1d82611f27565b73ffffffffffffffffffffffffffffffffffffffff168373ffffffffffffffffffffffffffffffffffffffff16141515611bbf576040517f08c379a000000000000000000000000000000000000000000000000000000000815260040180806020018281038252601b8152602001807f5573657220646f6573206e6f74206f776e20746869732043617264000000000081525060200191505060405180910390fd5b611bca83838361316e565b505050565b611bd833612828565b1515611c72576040517f08c379a00000000000000000000000000000000000000000000000000000000081526004018080602001828103825260308152602001807f4d696e746572526f6c653a2063616c6c657220646f6573206e6f74206861766581526020017f20746865204d696e74657220726f6c650000000000000000000000000000000081525060400191505060405180910390fd5b611c7d8383836132ba565b505050565b6000600780549050905090565b611c9933826132de565b1515611ca457600080fd5b611caf8383836132ba565b505050565b6000611cbe6123a4565b1515611d32576040517f08c379a00000000000000000000000000000000000000000000000000000000081526004018080602001828103825260208152602001807f4f776e61626c653a2063616c6c6572206973206e6f7420746865206f776e657281525060200191505060405180910390fd5b601054905090565b6000611d4583612056565b82101515611d5257600080fd5b600560008473ffffffffffffffffffffffffffffffffffffffff1673ffffffffffffffffffffffffffffffffffffffff16815260200190815260200160002082815481101515611d9e57fe5b9060005260206000200154905092915050565b611db96123a4565b1515611e2d576040517f08c379a00000000000000000000000000000000000000000000000000000000081526004018080602001828103825260208152602001807f4f776e61626c653a2063616c6c6572206973206e6f7420746865206f776e657281525060200191505060405180910390fd5b80600b9080519060200190611e439291906152fa565b5050565b611e5133826132de565b1515611e5c57600080fd5b611e67838383613373565b505050565b6000611e89611e7a83613397565b67ffffffffffffffff166133ad565b9050919050565b611eac83838360206040519081016040528060008152506129ea565b505050565b6000611ebc826130fc565b9050919050565b6000611ecd611c82565b82101515611eda57600080fd5b600782815481101515611ee957fe5b90600052602060002001549050919050565b6000611f0a826020600a6130ce565b9050919050565b6000611f2082600460066130ce565b9050919050565b6000806001600084815260200190815260200160002060009054906101000a900473ffffffffffffffffffffffffffffffffffffffff169050600073ffffffffffffffffffffffffffffffffffffffff168173ffffffffffffffffffffffffffffffffffffffff1614151515611f9c57600080fd5b80915050919050565b611fae33612828565b1515612048576040517f08c379a00000000000000000000000000000000000000000000000000000000081526004018080602001828103825260308152602001807f4d696e746572526f6c653a2063616c6c657220646f6573206e6f74206861766581526020017f20746865204d696e74657220726f6c650000000000000000000000000000000081525060400191505060405180910390fd5b61205282826133cf565b5050565b60008073ffffffffffffffffffffffffffffffffffffffff168273ffffffffffffffffffffffffffffffffffffffff161415151561209357600080fd5b600360008373ffffffffffffffffffffffffffffffffffffffff1673ffffffffffffffffffffffffffffffffffffffff168152602001908152602001600020549050919050565b6120e26123a4565b1515612156576040517f08c379a00000000000000000000000000000000000000000000000000000000081526004018080602001828103825260208152602001807f4f776e61626c653a2063616c6c6572206973206e6f7420746865206f776e657281525060200191505060405180910390fd5b600073ffffffffffffffffffffffffffffffffffffffff16600e60009054906101000a900473ffffffffffffffffffffffffffffffffffffffff1673ffffffffffffffffffffffffffffffffffffffff167f8be0079c531659141344cd1fd0a4f28419497f9722a3daafe3b4186f6b6457e060405160405180910390a36000600e60006101000a81548173ffffffffffffffffffffffffffffffffffffffff021916908373ffffffffffffffffffffffffffffffffffffffff160217905550565b600061222233612828565b15156122bc576040517f08c379a00000000000000000000000000000000000000000000000000000000081526004018080602001828103825260308152602001807f4d696e746572526f6c653a2063616c6c657220646f6573206e6f74206861766581526020017f20746865204d696e74657220726f6c650000000000000000000000000000000081525060400191505060405180910390fd5b6122c583611f27565b73ffffffffffffffffffffffffffffffffffffffff168473ffffffffffffffffffffffffffffffffffffffff16141515612367576040517f08c379a000000000000000000000000000000000000000000000000000000000815260040180806020018281038252601b8152602001807f5573657220646f6573206e6f74206f776e20746869732043617264000000000081525060200191505060405180910390fd5b61237183836134e3565b90509392505050565b6000600e60009054906101000a900473ffffffffffffffffffffffffffffffffffffffff16905090565b6000600e60009054906101000a900473ffffffffffffffffffffffffffffffffffffffff1673ffffffffffffffffffffffffffffffffffffffff163373ffffffffffffffffffffffffffffffffffffffff1614905090565b600061240b82600060046130ce565b9050919050565b6060600a8054600181600116156101000203166002900480601f0160208091040260200160405190810160405280929190818152602001828054600181600116156101000203166002900480156124aa5780601f1061247f576101008083540402835291602001916124aa565b820191906000526020600020905b81548152906001019060200180831161248d57829003601f168201915b5050505050905090565b60006124c3826014600c6130ce565b9050919050565b6124d333612828565b151561256d576040517f08c379a00000000000000000000000000000000000000000000000000000000081526004018080602001828103825260308152602001807f4d696e746572526f6c653a2063616c6c657220646f6573206e6f74206861766581526020017f20746865204d696e74657220726f6c650000000000000000000000000000000081525060400191505060405180910390fd5b61257681613641565b50565b6125823361369b565b565b61258c6123a4565b1515612600576040517f08c379a00000000000000000000000000000000000000000000000000000000081526004018080602001828103825260208152602001807f4f776e61626c653a2063616c6c6572206973206e6f7420746865206f776e657281525060200191505060405180910390fd5b348114151561269d576040517f08c379a00000000000000000000000000000000000000000000000000000000081526004018080602001828103825260368152602001807f53706563696669656420616d6f756e7420646f6573206e6f74206d617463682081526020017f61637475616c20616d6f756e742072656365697665640000000000000000000081525060400191505060405180910390fd5b7f8fa546d819cb282fc4b5e8324b3ae6d54fcade1a59359ceb64d33948a48c13fa816040518082815260200191505060405180910390a150565b3373ffffffffffffffffffffffffffffffffffffffff168273ffffffffffffffffffffffffffffffffffffffff161415151561271257600080fd5b80600460003373ffffffffffffffffffffffffffffffffffffffff1673ffffffffffffffffffffffffffffffffffffffff16815260200190815260200160002060008473ffffffffffffffffffffffffffffffffffffffff1673ffffffffffffffffffffffffffffffffffffffff16815260200190815260200160002060006101000a81548160ff0219169083151502179055508173ffffffffffffffffffffffffffffffffffffffff163373ffffffffffffffffffffffffffffffffffffffff167f17307eab39ab6107e8899845ad3d59bd9653f200f220920489ca2b5937696c3183604051808215151515815260200191505060405180910390a35050565b600061282182600a806130ce565b9050919050565b600061283e82600d6136f590919063ffffffff16565b9050919050565b600080600080612854856123fc565b9050600061286186611f11565b9050600061286e87612813565b90508282829550955095505050509193909250565b600061288e33612828565b1515612928576040517f08c379a00000000000000000000000000000000000000000000000000000000081526004018080602001828103825260308152602001807f4d696e746572526f6c653a2063616c6c657220646f6573206e6f74206861766581526020017f20746865204d696e74657220726f6c650000000000000000000000000000000081525060400191505060405180910390fd5b61293185611f27565b73ffffffffffffffffffffffffffffffffffffffff168673ffffffffffffffffffffffffffffffffffffffff161415156129d3576040517f08c379a000000000000000000000000000000000000000000000000000000000815260040180806020018281038252601b8152602001807f5573657220646f6573206e6f74206f776e20746869732043617264000000000081525060200191505060405180910390fd5b6129df85858585613818565b905095945050505050565b6129f5848484611c8f565b612a0184848484613a15565b1515612a0c57600080fd5b50505050565b6060612a1d826130fc565b1515612a91576040517f08c379a00000000000000000000000000000000000000000000000000000000081526004018080602001828103825260138152602001807f546f6b656e20646f65736e27742065786973740000000000000000000000000081525060200191505060405180910390fd5b600b612a9c83613c38565b6040516020018083805460018160011615610100020316600290048015612afa5780601f10612ad8576101008083540402835291820191612afa565b820191906000526020600020905b815481529060010190602001808311612ae6575b505082805190602001908083835b602083101515612b2d5780518252602082019150602081019050602083039250612b08565b6001836020036101000a038019825116818451168082178552505050505050905001807f2e6a736f6e000000000000000000000000000000000000000000000000000000815250600501925050506040516020818303038152906040529050919050565b612b996123a4565b1515612c0d576040517f08c379a00000000000000000000000000000000000000000000000000000000081526004018080602001828103825260208152602001807f4f776e61626c653a2063616c6c6572206973206e6f7420746865206f776e657281525060200191505060405180910390fd5b612c1681613d91565b50565b612c2233612828565b1515612cbc576040517f08c379a00000000000000000000000000000000000000000000000000000000081526004018080602001828103825260308152602001807f4d696e746572526f6c653a2063616c6c657220646f6573206e6f74206861766581526020017f20746865204d696e74657220726f6c650000000000000000000000000000000081525060400191505060405180910390fd5b612cc682826133cf565b600080600090505b8251811015612d0857612cf78382815181101515612ce857fe5b90602001906020020151611e6c565b820191508080600101915050612cce565b506000811115612d1e5780601054016010819055505b505050565b600080600c60009054906101000a900473ffffffffffffffffffffffffffffffffffffffff1690508273ffffffffffffffffffffffffffffffffffffffff168173ffffffffffffffffffffffffffffffffffffffff1663c4552791866040518263ffffffff167c0100000000000000000000000000000000000000000000000000000000028152600401808273ffffffffffffffffffffffffffffffffffffffff1673ffffffffffffffffffffffffffffffffffffffff16815260200191505060206040518083038186803b158015612dfb57600080fd5b505afa158015612e0f573d6000803e3d6000fd5b505050506040513d6020811015612e2557600080fd5b810190808051906020019092919050505073ffffffffffffffffffffffffffffffffffffffff161415612e5c576001915050612e6a565b612e668484613dd5565b9150505b92915050565b6000600f600083815260200190815260200160002060009054906101000a900460ff169050919050565b612ea26123a4565b1515612f16576040517f08c379a00000000000000000000000000000000000000000000000000000000081526004018080602001828103825260208152602001807f4f776e61626c653a2063616c6c6572206973206e6f7420746865206f776e657281525060200191505060405180910390fd5b612f1f81613e69565b50565b600073ffffffffffffffffffffffffffffffffffffffff168273ffffffffffffffffffffffffffffffffffffffff1614151515612f5e57600080fd5b60008090505b8151811015612f9c57612f8f84848484815181101515612f8057fe5b90602001906020020151613373565b8080600101915050612f64565b50612ff08151600360008673ffffffffffffffffffffffffffffffffffffffff1673ffffffffffffffffffffffffffffffffffffffff16815260200190815260200160002054613ff490919063ffffffff16565b600360008573ffffffffffffffffffffffffffffffffffffffff1673ffffffffffffffffffffffffffffffffffffffff168152602001908152602001600020819055506130868151600360008573ffffffffffffffffffffffffffffffffffffffff1673ffffffffffffffffffffffffffffffffffffffff1681526020019081526020016000205461407f90919063ffffffff16565b600360008473ffffffffffffffffffffffffffffffffffffffff1673ffffffffffffffffffffffffffffffffffffffff16815260200190815260200160002081905550505050565b6000808360018460019060020a02039060020a02905083818616908060020a82049150509150509392505050565b6000806001600084815260200190815260200160002060009054906101000a900473ffffffffffffffffffffffffffffffffffffffff169050600073ffffffffffffffffffffffffffffffffffffffff168173ffffffffffffffffffffffffffffffffffffffff161415915050919050565b61317782612e70565b1515156131ec576040517f08c379a000000000000000000000000000000000000000000000000000000000815260040180806020018281038252601d8152602001807f436172642068617320616c7265616479206265656e207072696e74656400000081525060200191505060405180910390fd5b60006131f783611e6c565b90506001600f600085815260200190815260200160002060006101000a81548160ff02191690831515021790555061322f8482614109565b508373ffffffffffffffffffffffffffffffffffffffff167ff2e8ba2635c73cbaec454355ad7d39a7f714cf9c9be04e86f83f27917ca38aec84838560405180848152602001838152602001826fffffffffffffffffffffffffffffffff19166fffffffffffffffffffffffffffffffff19168152602001935050505060405180910390a250505050565b6132c5838383614246565b6132cf83826144ab565b6132d9828261464f565b505050565b6000806132ea83611f27565b90508073ffffffffffffffffffffffffffffffffffffffff168473ffffffffffffffffffffffffffffffffffffffff16148061335957508373ffffffffffffffffffffffffffffffffffffffff166133418461189e565b73ffffffffffffffffffffffffffffffffffffffff16145b8061336a57506133698185612d23565b5b91505092915050565b61337e838383614716565b61338883826144ab565b613392828261464f565b505050565b60006133a682602a60166130ce565b9050919050565b6000620f4240670de0b6b3a764000083028115156133c757fe5b049050919050565b600073ffffffffffffffffffffffffffffffffffffffff168273ffffffffffffffffffffffffffffffffffffffff161415151561340b57600080fd5b60008090505b81518110156134485761343b83838381518110151561342c57fe5b90602001906020020151614813565b8080600101915050613411565b5061349c8151600360008573ffffffffffffffffffffffffffffffffffffffff1673ffffffffffffffffffffffffffffffffffffffff1681526020019081526020016000205461407f90919063ffffffff16565b600360008473ffffffffffffffffffffffffffffffffffffffff1673ffffffffffffffffffffffffffffffffffffffff168152602001908152602001600020819055505050565b60006134ee83612e70565b151515613563576040517f08c379a00000000000000000000000000000000000000000000000000000000081526004018080602001828103825260198152602001807f43616e6e6f74206d656c74207072696e7465642043617264730000000000000081525060200191505060405180910390fd5b600061356e84611f27565b9050600061357b85611efb565b67ffffffffffffffff169050600061359286611e6c565b905061359e8387614834565b6135a88382614109565b508273ffffffffffffffffffffffffffffffffffffffff167f79d973231e3241cbd3c7aeed2efd06169171a33879c5a07c75f21e13d9e7a5aa8783858960405180858152602001848152602001838152602001826fffffffffffffffffffffffffffffffff19166fffffffffffffffffffffffffffffffff1916815260200194505050505060405180910390a281935050505092915050565b61365581600d61486e90919063ffffffff16565b8073ffffffffffffffffffffffffffffffffffffffff167f6ae172837ea30b801fbfcdd4108aa1d5bf8ff775444fd70256b44e6bf3dfc3f660405160405180910390a250565b6136af81600d61494b90919063ffffffff16565b8073ffffffffffffffffffffffffffffffffffffffff167fe94479a9f7e1952cc78f2d6baab678adc1b772d936c6583def489e524cb6669260405160405180910390a250565b60008073ffffffffffffffffffffffffffffffffffffffff168273ffffffffffffffffffffffffffffffffffffffff16141515156137c1576040517f08c379a00000000000000000000000000000000000000000000000000000000081526004018080602001828103825260228152602001807f526f6c65733a206163636f756e7420697320746865207a65726f20616464726581526020017f737300000000000000000000000000000000000000000000000000000000000081525060400191505060405180910390fd5b8260000160008373ffffffffffffffffffffffffffffffffffffffff1673ffffffffffffffffffffffffffffffffffffffff16815260200190815260200160002060009054906101000a900460ff16905092915050565b60008061382486611f27565b905061382f85611f27565b73ffffffffffffffffffffffffffffffffffffffff168173ffffffffffffffffffffffffffffffffffffffff161415156138d1576040517f08c379a000000000000000000000000000000000000000000000000000000000815260040180806020018281038252601c8152602001807f5573657220646f6573206e6f74206f776e20626f74682043617264730000000081525060200191505060405180910390fd5b6138db8686611815565b151561394f576040517f08c379a00000000000000000000000000000000000000000000000000000000081526004018080602001828103825260188152602001807f436172647320617265206e6f7420636f6d70617469626c65000000000000000081525060200191505060405180910390fd5b600061395c878787614a4d565b90506139688282614b5f565b6139728288614834565b61397c8287614834565b8173ffffffffffffffffffffffffffffffffffffffff167f11dfc4099a4852e1f7cdba92cd3234c30815f602934656865442f5d321cf7f998888848860405180858152602001848152602001838152602001826fffffffffffffffffffffffffffffffff19166fffffffffffffffffffffffffffffffff1916815260200194505050505060405180910390a28092505050949350505050565b6000613a368473ffffffffffffffffffffffffffffffffffffffff16614b80565b1515613a455760019050613c30565b60008473ffffffffffffffffffffffffffffffffffffffff1663150b7a02338887876040518563ffffffff167c0100000000000000000000000000000000000000000000000000000000028152600401808573ffffffffffffffffffffffffffffffffffffffff1673ffffffffffffffffffffffffffffffffffffffff1681526020018473ffffffffffffffffffffffffffffffffffffffff1673ffffffffffffffffffffffffffffffffffffffff16815260200183815260200180602001828103825283818151815260200191508051906020019080838360005b83811015613b3c578082015181840152602081019050613b21565b50505050905090810190601f168015613b695780820380516001836020036101000a031916815260200191505b5095505050505050602060405180830381600087803b158015613b8b57600080fd5b505af1158015613b9f573d6000803e3d6000fd5b505050506040513d6020811015613bb557600080fd5b8101908080519060200190929190505050905063150b7a027c0100000000000000000000000000000000000000000000000000000000027bffffffffffffffffffffffffffffffffffffffffffffffffffffffff1916817bffffffffffffffffffffffffffffffffffffffffffffffffffffffff1916149150505b949350505050565b60606000821415613c80576040805190810160405280600181526020017f30000000000000000000000000000000000000000000000000000000000000008152509050613d8c565b600082905060005b600082141515613cae578080600101915050600a82811515613ca657fe5b049150613c88565b6060816040519080825280601f01601f191660200182016040528015613ce35781602001600182028038833980820191505090505b50905060006001830390505b600086141515613d8457600a86811515613d0557fe5b066030017f010000000000000000000000000000000000000000000000000000000000000002828280600190039350815181101515613d4057fe5b9060200101907effffffffffffffffffffffffffffffffffffffffffffffffffffffffffffff1916908160001a905350600a86811515613d7c57fe5b049550613cef565b819450505050505b919050565b80600c60006101000a81548173ffffffffffffffffffffffffffffffffffffffff021916908373ffffffffffffffffffffffffffffffffffffffff16021790555050565b6000600460008473ffffffffffffffffffffffffffffffffffffffff1673ffffffffffffffffffffffffffffffffffffffff16815260200190815260200160002060008373ffffffffffffffffffffffffffffffffffffffff1673ffffffffffffffffffffffffffffffffffffffff16815260200190815260200160002060009054906101000a900460ff16905092915050565b600073ffffffffffffffffffffffffffffffffffffffff168173ffffffffffffffffffffffffffffffffffffffff1614151515613f34576040517f08c379a00000000000000000000000000000000000000000000000000000000081526004018080602001828103825260268152602001807f4f776e61626c653a206e6577206f776e657220697320746865207a65726f206181526020017f646472657373000000000000000000000000000000000000000000000000000081525060400191505060405180910390fd5b8073ffffffffffffffffffffffffffffffffffffffff16600e60009054906101000a900473ffffffffffffffffffffffffffffffffffffffff1673ffffffffffffffffffffffffffffffffffffffff167f8be0079c531659141344cd1fd0a4f28419497f9722a3daafe3b4186f6b6457e060405160405180910390a380600e60006101000a81548173ffffffffffffffffffffffffffffffffffffffff021916908373ffffffffffffffffffffffffffffffffffffffff16021790555050565b600082821115151561406e576040517f08c379a000000000000000000000000000000000000000000000000000000000815260040180806020018281038252601e8152602001807f536166654d6174683a207375627472616374696f6e206f766572666c6f77000081525060200191505060405180910390fd5b600082840390508091505092915050565b60008082840190508381101515156140ff576040517f08c379a000000000000000000000000000000000000000000000000000000000815260040180806020018281038252601b8152602001807f536166654d6174683a206164646974696f6e206f766572666c6f77000000000081525060200191505060405180910390fd5b8091505092915050565b6000808390503073ffffffffffffffffffffffffffffffffffffffff163183111515156141ea576040517f08c379a00000000000000000000000000000000000000000000000000000000081526004018080602001828103825260428152602001807f4e6f7420656e6f7567682066756e647320746f20706179206f7574207772617081526020017f7065642065746865722c20706c656173652074727920616761696e206c61746581526020017f722e00000000000000000000000000000000000000000000000000000000000081525060600191505060405180910390fd5b82601054036010819055508073ffffffffffffffffffffffffffffffffffffffff166108fc849081150290604051600060405180830381858888f1935050505015801561423b573d6000803e3d6000fd5b508291505092915050565b8273ffffffffffffffffffffffffffffffffffffffff1661426682611f27565b73ffffffffffffffffffffffffffffffffffffffff1614151561428857600080fd5b600073ffffffffffffffffffffffffffffffffffffffff168273ffffffffffffffffffffffffffffffffffffffff16141515156142c457600080fd5b6142cd81614b93565b6143206001600360008673ffffffffffffffffffffffffffffffffffffffff1673ffffffffffffffffffffffffffffffffffffffff16815260200190815260200160002054613ff490919063ffffffff16565b600360008573ffffffffffffffffffffffffffffffffffffffff1673ffffffffffffffffffffffffffffffffffffffff168152602001908152602001600020819055506143b66001600360008573ffffffffffffffffffffffffffffffffffffffff1673ffffffffffffffffffffffffffffffffffffffff1681526020019081526020016000205461407f90919063ffffffff16565b600360008473ffffffffffffffffffffffffffffffffffffffff1673ffffffffffffffffffffffffffffffffffffffff16815260200190815260200160002081905550816001600083815260200190815260200160002060006101000a81548173ffffffffffffffffffffffffffffffffffffffff021916908373ffffffffffffffffffffffffffffffffffffffff160217905550808273ffffffffffffffffffffffffffffffffffffffff168473ffffffffffffffffffffffffffffffffffffffff167fddf252ad1be2c89b69c2b068fc378daa952ba7f163c4a11628f55a4df523b3ef60405160405180910390a4505050565b60006145036001600560008673ffffffffffffffffffffffffffffffffffffffff1673ffffffffffffffffffffffffffffffffffffffff16815260200190815260200160002080549050613ff490919063ffffffff16565b905060006006600084815260200190815260200160002054905081811415156145f6576000600560008673ffffffffffffffffffffffffffffffffffffffff1673ffffffffffffffffffffffffffffffffffffffff1681526020019081526020016000208381548110151561457457fe5b9060005260206000200154905080600560008773ffffffffffffffffffffffffffffffffffffffff1673ffffffffffffffffffffffffffffffffffffffff168152602001908152602001600020838154811015156145ce57fe5b9060005260206000200181905550816006600083815260200190815260200160002081905550505b600560008573ffffffffffffffffffffffffffffffffffffffff1673ffffffffffffffffffffffffffffffffffffffff168152602001908152602001600020805480919060019003614648919061537a565b5050505050565b600560008373ffffffffffffffffffffffffffffffffffffffff1673ffffffffffffffffffffffffffffffffffffffff168152602001908152602001600020805490506006600083815260200190815260200160002081905550600560008373ffffffffffffffffffffffffffffffffffffffff1673ffffffffffffffffffffffffffffffffffffffff1681526020019081526020016000208190806001815401808255809150509060018203906000526020600020016000909192909190915055505050565b8273ffffffffffffffffffffffffffffffffffffffff1661473682611f27565b73ffffffffffffffffffffffffffffffffffffffff1614151561475857600080fd5b61476181614b93565b816001600083815260200190815260200160002060006101000a81548173ffffffffffffffffffffffffffffffffffffffff021916908373ffffffffffffffffffffffffffffffffffffffff160217905550808273ffffffffffffffffffffffffffffffffffffffff168473ffffffffffffffffffffffffffffffffffffffff167fddf252ad1be2c89b69c2b068fc378daa952ba7f163c4a11628f55a4df523b3ef60405160405180910390a4505050565b61481d8282614c53565b614827828261464f565b61483081614d6e565b5050565b61483e8282614dba565b61484882826144ab565b6000600660008381526020019081526020016000208190555061486a81614f4e565b5050565b61487882826136f5565b1515156148ed576040517f08c379a000000000000000000000000000000000000000000000000000000000815260040180806020018281038252601f8152602001807f526f6c65733a206163636f756e7420616c72656164792068617320726f6c650081525060200191505060405180910390fd5b60018260000160008373ffffffffffffffffffffffffffffffffffffffff1673ffffffffffffffffffffffffffffffffffffffff16815260200190815260200160002060006101000a81548160ff0219169083151502179055505050565b61495582826136f5565b15156149ef576040517f08c379a00000000000000000000000000000000000000000000000000000000081526004018080602001828103825260218152602001807f526f6c65733a206163636f756e7420646f6573206e6f74206861766520726f6c81526020017f650000000000000000000000000000000000000000000000000000000000000081525060400191505060405180910390fd5b60008260000160008373ffffffffffffffffffffffffffffffffffffffff1673ffffffffffffffffffffffffffffffffffffffff16815260200190815260200160002060006101000a81548160ff0219169083151502179055505050565b600080614a59856123fc565b905060006001614a6887611f11565b0390506000614a7687612813565b90506000614a84888861500c565b9050614a8e6153a6565b60c0604051908101604052808667ffffffffffffffff1667ffffffffffffffff1681526020018567ffffffffffffffff1667ffffffffffffffff1681526020018467ffffffffffffffff1667ffffffffffffffff1681526020018867ffffffffffffffff1667ffffffffffffffff168152602001614b0b8a611efb565b614b148c611efb565b0167ffffffffffffffff1667ffffffffffffffff1681526020018367ffffffffffffffff1667ffffffffffffffff168152509050614b518161507c565b955050505050509392505050565b614b698282615161565b614b73828261464f565b614b7c81614d6e565b5050565b600080823b905060008111915050919050565b600073ffffffffffffffffffffffffffffffffffffffff166002600083815260200190815260200160002060009054906101000a900473ffffffffffffffffffffffffffffffffffffffff1673ffffffffffffffffffffffffffffffffffffffff16141515614c505760006002600083815260200190815260200160002060006101000a81548173ffffffffffffffffffffffffffffffffffffffff021916908373ffffffffffffffffffffffffffffffffffffffff1602179055505b50565b600073ffffffffffffffffffffffffffffffffffffffff166001600083815260200190815260200160002060009054906101000a900473ffffffffffffffffffffffffffffffffffffffff1673ffffffffffffffffffffffffffffffffffffffff161415614d0e57816001600083815260200190815260200160002060006101000a81548173ffffffffffffffffffffffffffffffffffffffff021916908373ffffffffffffffffffffffffffffffffffffffff1602179055505b808273ffffffffffffffffffffffffffffffffffffffff16600073ffffffffffffffffffffffffffffffffffffffff167fddf252ad1be2c89b69c2b068fc378daa952ba7f163c4a11628f55a4df523b3ef60405160405180910390a45050565b6007805490506008600083815260200190815260200160002081905550600781908060018154018082558091505090600182039060005260206000200160009091929091909150555050565b8173ffffffffffffffffffffffffffffffffffffffff16614dda82611f27565b73ffffffffffffffffffffffffffffffffffffffff16141515614dfc57600080fd5b614e0581614b93565b614e586001600360008573ffffffffffffffffffffffffffffffffffffffff1673ffffffffffffffffffffffffffffffffffffffff16815260200190815260200160002054613ff490919063ffffffff16565b600360008473ffffffffffffffffffffffffffffffffffffffff1673ffffffffffffffffffffffffffffffffffffffff1681526020019081526020016000208190555060006001600083815260200190815260200160002060006101000a81548173ffffffffffffffffffffffffffffffffffffffff021916908373ffffffffffffffffffffffffffffffffffffffff16021790555080600073ffffffffffffffffffffffffffffffffffffffff168373ffffffffffffffffffffffffffffffffffffffff167fddf252ad1be2c89b69c2b068fc378daa952ba7f163c4a11628f55a4df523b3ef60405160405180910390a45050565b6000614f696001600780549050613ff490919063ffffffff16565b90506000600860008481526020019081526020016000205490506000600783815481101515614f9457fe5b9060005260206000200154905080600783815481101515614fb157fe5b90600052602060002001819055508160086000838152602001908152602001600020819055506007805480919060019003614fec919061537a565b506000600860008681526020019081526020016000208190555050505050565b60008061501884613397565b9050600061502584613397565b9050600081830167ffffffffffffffff169050624000008111156150705760006150536240000083036133ad565b905061506761506188611f27565b82614109565b50624000009150505b80935050505092915050565b6000602a82600560068110151561508f57fe5b602002015167ffffffffffffffff169060020a0260208360046006811015156150b457fe5b602002015167ffffffffffffffff169060020a0260148460036006811015156150d957fe5b602002015167ffffffffffffffff169060020a02600a8560026006811015156150fe57fe5b602002015167ffffffffffffffff169060020a02600486600160068110151561512357fe5b602002015167ffffffffffffffff169060020a0286600060068110151561514657fe5b6020020151171717171767ffffffffffffffff169050919050565b600073ffffffffffffffffffffffffffffffffffffffff168273ffffffffffffffffffffffffffffffffffffffff161415151561519d57600080fd5b6151a6816130fc565b1515156151b257600080fd5b816001600083815260200190815260200160002060006101000a81548173ffffffffffffffffffffffffffffffffffffffff021916908373ffffffffffffffffffffffffffffffffffffffff1602179055506152576001600360008573ffffffffffffffffffffffffffffffffffffffff1673ffffffffffffffffffffffffffffffffffffffff1681526020019081526020016000205461407f90919063ffffffff16565b600360008473ffffffffffffffffffffffffffffffffffffffff1673ffffffffffffffffffffffffffffffffffffffff16815260200190815260200160002081905550808273ffffffffffffffffffffffffffffffffffffffff16600073ffffffffffffffffffffffffffffffffffffffff167fddf252ad1be2c89b69c2b068fc378daa952ba7f163c4a11628f55a4df523b3ef60405160405180910390a45050565b828054600181600116156101000203166002900490600052602060002090601f016020900481019282601f1061533b57805160ff1916838001178555615369565b82800160010185558215615369579182015b8281111561536857825182559160200191906001019061534d565b5b50905061537691906153c9565b5090565b8154818355818111156153a1578183600052602060002091820191016153a091906153c9565b5b505050565b60c060405190810160405280600690602082028038833980820191505090505090565b6153eb91905b808211156153e75760008160009055506001016153cf565b5090565b9056fea165627a7a72305820fa179c050f6121053686c80815dac01f3de7989a747538d75a87ae38939005220029",
  "source": "/**\n * Phat Cats - Crypto-Cards\n *  - https://crypto-cards.io\n *  - https://phatcats.co\n *\n * Copyright 2019 (c) Phat Cats, Inc.\n */\n/*\nNOTES:\n    - Contract holds ETH for distribution from Card Melting & Printing\n    - Token IDs are bit-mapped to store:\n        - Card Year\n        - Card Generation\n        - Card Rank\n        - Card Issue\n        - Wrapped GUM\n        - Wrapped ETH\n\nTOKEN-ID BIT-MAP:\n      E       G    I   R   G  Y\n      22      10   12  10  6  4\n[____________|___|____|___|__|_]\n\n\n22 bits for (max 4,194,304)\n\t- wrapped ether (divided by 1,000,000)\n         4194304 / 1000000 = 4.194304\n\t\t   10000 / 1000000 = 0.01\n\t\t       1 / 1000000 = 0.000001\n\n10 bits for  (max 1,024)\n\t- wrapped gum\n\n12 bits for  (max 4,096)\n\t- card issue\n\n10 bits for  (max 1,024)\n\t- card rank\n\n6 bits for  (max 64)\n\t- current generation\n\n4 bits for (max 16)\n\t- year of issue (0 = 2019)\n\n*/\n\npragma solidity 0.5.0;\n\nimport \"openzeppelin-solidity/contracts/ownership/Ownable.sol\";\nimport \"openzeppelin-solidity/contracts/access/roles/MinterRole.sol\";\nimport \"./CryptoCardsERC721Batched.sol\";\n\n/**\n * @title Crypto-Cards ERC721 Card Token\n * ERC721-compliant token representing individual Cards\n */\ncontract CryptoCardsCardToken is CryptoCardsERC721Batched, MinterRole, Ownable {\n    uint internal constant ETH_DIV = 1000000;\n    uint internal constant ETH_MAX = 4194304;\n\n    //\n    // Storage\n    //\n    // Tokens that have been printed\n    mapping(uint => bool) internal _printedTokens;\n\n    // The amount of ETH wrapped in existing Tokens and not yet paid out\n    //  - balance of contract must always be >= than this value\n    uint internal _wrappedEtherDemand;\n\n    //\n    // Events\n    //\n    event CardsCombined(address indexed owner, uint tokenA, uint tokenB, uint newTokenId, bytes16 uuid);\n    event CardPrinted(address indexed owner, uint tokenId, uint wrappedEther, bytes16 uuid);\n    event CardMelted(address indexed owner, uint tokenId, uint wrappedEther, uint wrappedGum, bytes16 uuid);\n    event WrappedEtherDeposit(uint amount);\n\n    //\n    // Initialize\n    //\n    constructor() public CryptoCardsERC721Batched(\"Crypto-Cards - Cards\", \"CARDS\", \"https://crypto-cards.io/card-info/\") { }\n\n    //\n    // Public\n    //\n\n    // Starts at 0, must add START_YEAR  (ie 0 + 2019)\n    function getYear(uint tokenId) public pure returns (uint64) {\n        return _readBits(tokenId, 0, 4);\n    }\n\n    // Starts at 0\n    function getGeneration(uint tokenId) public pure returns (uint64) {\n        return _readBits(tokenId, 4, 6);\n    }\n\n    // Starts at 0\n    function getRank(uint tokenId) public pure returns (uint64) {\n        return _readBits(tokenId, 10, 10);\n    }\n\n    // Starts at 1\n    function getIssue(uint tokenId) public pure returns (uint64) {\n        return _readBits(tokenId, 20, 12);\n    }\n\n    function getTypeIndicators(uint tokenId) public pure returns (uint64, uint64, uint64) {\n        uint64 y = getYear(tokenId);\n        uint64 g = getGeneration(tokenId);\n        uint64 r = getRank(tokenId);\n        return (y, g, r);\n    }\n\n    // Default 0\n    function getWrappedGum(uint tokenId) public pure returns (uint64) {\n        return _readBits(tokenId, 32, 10);\n    }\n\n    // Default 0\n    function getWrappedEther(uint tokenId) public pure returns (uint) {\n        return _convertToEther(_getWrappedEtherRaw(tokenId));\n    }\n\n    function isTokenPrinted(uint tokenId) public view returns (bool) {\n        return _printedTokens[tokenId];\n    }\n\n    function canCombine(uint tokenA, uint tokenB) public view returns (bool) {\n        if (isTokenPrinted(tokenA) || isTokenPrinted(tokenB)) { return false; }\n        if (getGeneration(tokenA) < 1) { return false; }\n\n        uint32 typeA = uint32(_readBits(tokenA, 0, 20)); // y, g, r\n        uint32 typeB = uint32(_readBits(tokenB, 0, 20)); // y, g, r\n        return (typeA == typeB);\n    }\n\n    //\n    // Only Minter\n    //   Note: Minter is the Card-Controller Contract, which is the only Minter ever assigned.\n    //         Only the Minter can add new minters, and as the Card-Controller Contract has no code for\n    //         assigning new Minters, no new minters can ever be added.\n    //\n\n    function mintCardsFromPack(address to, uint[] memory tokenIds) public onlyMinter {\n        // Mint Tokens\n        _mintBatch(to, tokenIds);\n\n        // Track Wrapped Ether (if any)\n        uint totalWrappedEth;\n        for (uint i = 0; i < tokenIds.length; i++) {\n            totalWrappedEth = totalWrappedEth + getWrappedEther(tokenIds[i]);\n        }\n        if (totalWrappedEth > 0) {\n            _wrappedEtherDemand = _wrappedEtherDemand + totalWrappedEth;\n        }\n    }\n\n    function migrateCards(address to, uint[] memory tokenIds) public onlyMinter {\n        _mintBatch(to, tokenIds);\n    }\n\n    function printFor(address owner, uint tokenId, bytes16 uuid) public onlyMinter {\n        require(owner == ownerOf(tokenId), \"User does not own this Card\");\n        _printToken(owner, tokenId, uuid);\n    }\n\n    function combineFor(address owner, uint tokenA, uint tokenB, uint newIssue, bytes16 uuid) public onlyMinter returns (uint) {\n        require(owner == ownerOf(tokenA), \"User does not own this Card\"); // tokenB is verified via _combineTokens\n        return _combineTokens(tokenA, tokenB, newIssue, uuid);\n    }\n\n    function meltFor(address owner, uint tokenId, bytes16 uuid) public onlyMinter returns (uint) {\n        require(owner == ownerOf(tokenId), \"User does not own this Card\");\n        return _meltToken(tokenId, uuid);\n    }\n\n    function tokenTransfer(address from, address to, uint tokenId) public onlyMinter {\n        _transferFrom(from, to, tokenId);\n    }\n\n    //\n    // Only Owner\n    //\n\n    function setBaseTokenURI(string memory uri) public onlyOwner {\n        _baseTokenURI = uri;\n    }\n\n    function setProxyRegistryAddress(address proxy) public onlyOwner {\n        _setProxyRegistryAddress(proxy);\n    }\n\n    function depositWrappedEther(uint amount) public payable onlyOwner {\n        require(amount == msg.value, \"Specified amount does not match actual amount received\");\n        emit WrappedEtherDeposit(amount);\n    }\n\n    function getWrappedEtherDemand() public view onlyOwner returns (uint) {\n        return _wrappedEtherDemand; // must always be <= supply\n    }\n\n    //\n    // Private\n    //\n\n    function _combineTokens(uint tokenA, uint tokenB, uint newIssue, bytes16 uuid) private returns (uint) {\n        address owner = ownerOf(tokenA);  // will revert if owner == address(0)\n        require(owner == ownerOf(tokenB), \"User does not own both Cards\");\n        require(canCombine(tokenA, tokenB), \"Cards are not compatible\");\n\n        uint newTokenId = _generateCombinedToken(tokenA, tokenB, newIssue);\n        _mint(owner, newTokenId);\n\n        _burn(owner, tokenA);\n        _burn(owner, tokenB);\n\n        emit CardsCombined(owner, tokenA, tokenB, newTokenId, uuid);\n        return newTokenId;\n    }\n\n    function _printToken(address owner, uint tokenId, bytes16 uuid) private {\n        require(!isTokenPrinted(tokenId), \"Card has already been printed\");\n\n        // Gum is forfeit when Printing Cards\n        // Get Wrapped Ether to be Paid\n        uint wrappedEth = getWrappedEther(tokenId);\n\n        _printedTokens[tokenId] = true;\n        _payoutEther(owner, wrappedEth);\n\n        emit CardPrinted(owner, tokenId, wrappedEth, uuid);\n    }\n\n    function _meltToken(uint tokenId, bytes16 uuid) private returns (uint) {\n        require(!isTokenPrinted(tokenId), \"Cannot melt printed Cards\");\n        address owner = ownerOf(tokenId);\n\n        // Get Wrapped Ether & Gum to be Paid\n        uint wrappedGum = getWrappedGum(tokenId);\n        uint wrappedEth = getWrappedEther(tokenId);\n\n        _burn(owner, tokenId);\n        _payoutEther(owner, wrappedEth);\n\n        emit CardMelted(owner, tokenId, wrappedEth, wrappedGum, uuid);\n        return wrappedGum;\n    }\n\n    function _payoutEther(address owner, uint256 ethAmount) private returns (uint) {\n        address payable ownerWallet = address(uint160(owner));\n\n        // This should never happen, but just in case..\n        require(ethAmount <= address(this).balance, \"Not enough funds to pay out wrapped ether, please try again later.\");\n\n        _wrappedEtherDemand = _wrappedEtherDemand - ethAmount;\n\n        ownerWallet.transfer(ethAmount);\n        return ethAmount;\n    }\n\n    function _generateCombinedToken(uint tokenA, uint tokenB, uint newIssue) private returns (uint) {\n        uint64 y = getYear(tokenA);\n        uint64 g = getGeneration(tokenA) - 1;\n        uint64 r = getRank(tokenA);\n        uint64 eth = _getCombinedEtherRaw(tokenA, tokenB);\n\n        uint64[6] memory bits = [\n            y, g, r, uint64(newIssue),\n            getWrappedGum(tokenA) + getWrappedGum(tokenB),\n            eth\n        ];\n        return _generateTokenId(bits);\n    }\n\n    function _getCombinedEtherRaw(uint tokenA, uint tokenB) private returns (uint64) {\n        uint64 eA = _getWrappedEtherRaw(tokenA);\n        uint64 eB = _getWrappedEtherRaw(tokenB);\n        uint combined = uint(eA + eB);\n\n        // Check wrapped ether\n        if (combined > ETH_MAX) { // MAX Wrapped Ether\n            uint overage = _convertToEther(combined - ETH_MAX);\n            _payoutEther(ownerOf(tokenA), overage);\n            combined = ETH_MAX;\n        }\n        return uint64(combined);\n    }\n\n    function _getWrappedEtherRaw(uint tokenId) private pure returns (uint64) {\n        return _readBits(tokenId, 42, 22);\n    }\n\n    function _convertToEther(uint rawValue) private pure returns (uint) {\n        return rawValue * (1 ether) / ETH_DIV;\n    }\n\n    function _generateTokenId(uint64[6] memory bits) private pure returns (uint) {\n        return uint(bits[0] | (bits[1] << 4) | (bits[2] << 10) | (bits[3] << 20) | (bits[4] << 32) | (bits[5] << 42));\n    }\n\n    function _readBits(uint num, uint from, uint len) private pure returns (uint64) {\n        uint mask = ((1 << len) - 1) << from;\n        return uint64((num & mask) >> from);\n    }\n}\n",
  "sourcePath": "/Users/robsecord/workspace/Ethereum/CryptoCards/cryptocards_token_contracts/contracts/CryptoCardsCardToken.sol",
  "compiler": {
    "name": "solc",
    "version": "0.5.0+commit.1d4f565a.Emscripten.clang"
  },
  "schemaVersion": "3.0.11",
  "updatedAt": "2019-10-03T02:12:08.438Z",
  "devdoc": {
    "methods": {
      "approve(address,uint256)": {
        "details": "Approves another address to transfer the given token ID The zero address indicates there is no approved address. There can only be one approved address per token at a given time. Can only be called by the token owner or an approved operator.",
        "params": {
          "to": "address to be approved for the given token ID",
          "tokenId": "uint256 ID of the token to be approved"
        }
      },
      "balanceOf(address)": {
        "details": "Gets the balance of the specified address",
        "params": {
          "owner": "address to query the balance of"
        },
        "return": "uint256 representing the amount owned by the passed address"
      },
      "fastTransferFrom(address,address,uint256)": {
        "details": "Transfers the ownership of a given token ID to another address Usage of this method is discouraged, use `safeTransferFrom` whenever possible Requires the msg sender to be the owner, approved, or operator",
        "params": {
          "from": "current owner of the token",
          "to": "address to receive the ownership of the given token ID",
          "tokenId": "uint256 ID of the token to be transferred"
        }
      },
      "getApproved(uint256)": {
        "details": "Gets the approved address for a token ID, or zero if no address set Reverts if the token ID does not exist.",
        "params": {
          "tokenId": "uint256 ID of the token to query the approval of"
        },
        "return": "address currently approved for the given token ID"
      },
      "isOwner()": {
        "details": "Returns true if the caller is the current owner."
      },
      "owner()": {
        "details": "Returns the address of the current owner."
      },
      "ownerOf(uint256)": {
        "details": "Gets the owner of the specified token ID",
        "params": {
          "tokenId": "uint256 ID of the token to query the owner of"
        },
        "return": "owner address currently marked as the owner of the given token ID"
      },
      "renounceOwnership()": {
        "details": "Leaves the contract without owner. It will not be possible to call `onlyOwner` functions anymore. Can only be called by the current owner.     * > Note: Renouncing ownership will leave the contract without an owner, thereby removing any functionality that is only available to the owner."
      },
      "safeTransferFrom(address,address,uint256)": {
        "details": "Safely transfers the ownership of a given token ID to another address If the target address is a contract, it must implement `onERC721Received`, which is called upon a safe transfer, and return the magic value `bytes4(keccak256(\"onERC721Received(address,address,uint256,bytes)\"))`; otherwise, the transfer is reverted.     * Requires the msg sender to be the owner, approved, or operator",
        "params": {
          "from": "current owner of the token",
          "to": "address to receive the ownership of the given token ID",
          "tokenId": "uint256 ID of the token to be transferred"
        }
      },
      "safeTransferFrom(address,address,uint256,bytes)": {
        "details": "Safely transfers the ownership of a given token ID to another address If the target address is a contract, it must implement `onERC721Received`, which is called upon a safe transfer, and return the magic value `bytes4(keccak256(\"onERC721Received(address,address,uint256,bytes)\"))`; otherwise, the transfer is reverted. Requires the msg sender to be the owner, approved, or operator",
        "params": {
          "_data": "bytes data to send along with a safe transfer check",
          "from": "current owner of the token",
          "to": "address to receive the ownership of the given token ID",
          "tokenId": "uint256 ID of the token to be transferred"
        }
      },
      "setApprovalForAll(address,bool)": {
        "details": "Sets or unsets the approval of a given operator An operator is allowed to transfer all tokens of the sender on their behalf",
        "params": {
          "approved": "representing the status of the approval to be set",
          "to": "operator address to set the approval"
        }
      },
      "supportsInterface(bytes4)": {
        "details": "See `IERC165.supportsInterface`.     * Time complexity O(1), guaranteed to always use less than 30 000 gas."
      },
      "tokenByIndex(uint256)": {
        "details": "Gets the token ID at a given index of all the tokens in this contract Reverts if the index is greater or equal to the total number of tokens",
        "params": {
          "index": "uint256 representing the index to be accessed of the tokens list"
        },
        "return": "uint256 token ID at the given index of the tokens list"
      },
      "tokenOfOwnerByIndex(address,uint256)": {
        "details": "Gets the token ID at a given index of the tokens list of the requested owner",
        "params": {
          "index": "uint256 representing the index to be accessed of the requested tokens list",
          "owner": "address owning the tokens list to be accessed"
        },
        "return": "uint256 token ID at the given index of the tokens list owned by the requested address"
      },
      "totalSupply()": {
        "details": "Gets the total amount of tokens stored by the contract",
        "return": "uint256 representing the total amount of tokens"
      },
      "transferFrom(address,address,uint256)": {
        "details": "Transfers the ownership of a given token ID to another address Usage of this method is discouraged, use `safeTransferFrom` whenever possible Requires the msg sender to be the owner, approved, or operator",
        "params": {
          "from": "current owner of the token",
          "to": "address to receive the ownership of the given token ID",
          "tokenId": "uint256 ID of the token to be transferred"
        }
      },
      "transferOwnership(address)": {
        "details": "Transfers ownership of the contract to a new account (`newOwner`). Can only be called by the current owner."
      }
    },
    "title": "Crypto-Cards ERC721 Card Token ERC721-compliant token representing individual Cards"
  },
  "userdoc": {
    "methods": {}
  }
}